:10080000E4F5A07F381208641208557F01120864CD
:100810001208557F101208641208557F0C120864E4
:100820001208557F811208641208557F4812087219
:100830001208557F451208721208557F4C12087233
:100840001208557F4C1208721208557F4F12087219
:0508500012085580AE06
:0E0864008FA0C290C291D292120855C2922269
:0E0872008FA0D290C291D292120855C292224B
:0E085500E4FFFE0FBF00010EBE2EF8BFE1F55E
:010863002272
:0300000002088073
:0C088000787FE4F6D8FD758107020800BF
:00000001FF
